{
  "contractName": "PaymentSplitter",
  "abi": [
    {
      "inputs": [
        {
          "internalType": "address[]",
          "name": "payees",
          "type": "address[]"
        },
        {
          "internalType": "uint256[]",
          "name": "shares",
          "type": "uint256[]"
        }
      ],
      "payable": true,
      "stateMutability": "payable",
      "type": "constructor"
    },
    {
      "payable": true,
      "stateMutability": "payable",
      "type": "fallback"
    },
    {
      "anonymous": false,
      "inputs": [
        {
          "indexed": false,
          "internalType": "address",
          "name": "account",
          "type": "address"
        },
        {
          "indexed": false,
          "internalType": "uint256",
          "name": "shares",
          "type": "uint256"
        }
      ],
      "name": "PayeeAdded",
      "type": "event"
    },
    {
      "anonymous": false,
      "inputs": [
        {
          "indexed": false,
          "internalType": "address",
          "name": "to",
          "type": "address"
        },
        {
          "indexed": false,
          "internalType": "uint256",
          "name": "amount",
          "type": "uint256"
        }
      ],
      "name": "PaymentReleased",
      "type": "event"
    },
    {
      "anonymous": false,
      "inputs": [
        {
          "indexed": false,
          "internalType": "address",
          "name": "from",
          "type": "address"
        },
        {
          "indexed": false,
          "internalType": "uint256",
          "name": "amount",
          "type": "uint256"
        }
      ],
      "name": "PaymentReceived",
      "type": "event"
    },
    {
      "constant": true,
      "inputs": [],
      "name": "totalShares",
      "outputs": [
        {
          "internalType": "uint256",
          "name": "",
          "type": "uint256"
        }
      ],
      "payable": false,
      "stateMutability": "view",
      "type": "function"
    },
    {
      "constant": true,
      "inputs": [],
      "name": "totalReleased",
      "outputs": [
        {
          "internalType": "uint256",
          "name": "",
          "type": "uint256"
        }
      ],
      "payable": false,
      "stateMutability": "view",
      "type": "function"
    },
    {
      "constant": true,
      "inputs": [
        {
          "internalType": "address",
          "name": "account",
          "type": "address"
        }
      ],
      "name": "shares",
      "outputs": [
        {
          "internalType": "uint256",
          "name": "",
          "type": "uint256"
        }
      ],
      "payable": false,
      "stateMutability": "view",
      "type": "function"
    },
    {
      "constant": true,
      "inputs": [
        {
          "internalType": "address",
          "name": "account",
          "type": "address"
        }
      ],
      "name": "released",
      "outputs": [
        {
          "internalType": "uint256",
          "name": "",
          "type": "uint256"
        }
      ],
      "payable": false,
      "stateMutability": "view",
      "type": "function"
    },
    {
      "constant": true,
      "inputs": [
        {
          "internalType": "uint256",
          "name": "index",
          "type": "uint256"
        }
      ],
      "name": "payee",
      "outputs": [
        {
          "internalType": "address",
          "name": "",
          "type": "address"
        }
      ],
      "payable": false,
      "stateMutability": "view",
      "type": "function"
    },
    {
      "constant": false,
      "inputs": [
        {
          "internalType": "address payable",
          "name": "account",
          "type": "address"
        }
      ],
      "name": "release",
      "outputs": [],
      "payable": false,
      "stateMutability": "nonpayable",
      "type": "function"
    }
  ],
  "bytecode": "0x6080604052604051610ad3380380610ad38339818101604052604081101561002657600080fd5b810190808051604051939291908464010000000082111561004657600080fd5b8382019150602082018581111561005c57600080fd5b825186602082028301116401000000008211171561007957600080fd5b8083526020830192505050908051906020019060200280838360005b838110156100b0578082015181840152602081019050610095565b50505050905001604052602001805160405193929190846401000000008211156100d957600080fd5b838201915060208201858111156100ef57600080fd5b825186602082028301116401000000008211171561010c57600080fd5b8083526020830192505050908051906020019060200280838360005b83811015610143578082015181840152602081019050610128565b50505050905001604052505050805182511461015e57600080fd5b600082511161016c57600080fd5b60008090505b82518110156101be576101b183828151811061018a57fe5b602002602001015183838151811061019e57fe5b60200260200101516101c660201b60201c565b8080600101915050610172565b5050506103b0565b600073ffffffffffffffffffffffffffffffffffffffff168273ffffffffffffffffffffffffffffffffffffffff16141561020057600080fd5b6000811161020d57600080fd5b6000600260008473ffffffffffffffffffffffffffffffffffffffff1673ffffffffffffffffffffffffffffffffffffffff168152602001908152602001600020541461025957600080fd5b60048290806001815401808255809150509060018203906000526020600020016000909192909190916101000a81548173ffffffffffffffffffffffffffffffffffffffff021916908373ffffffffffffffffffffffffffffffffffffffff1602179055505080600260008473ffffffffffffffffffffffffffffffffffffffff1673ffffffffffffffffffffffffffffffffffffffff1681526020019081526020016000208190555061031c8160005461039160201b6106401790919060201c565b6000819055507f40c340f65e17194d14ddddb073d3c9f888e3cb52b5aae0c6c7706b4fbc905fac8282604051808373ffffffffffffffffffffffffffffffffffffffff1673ffffffffffffffffffffffffffffffffffffffff1681526020018281526020019250505060405180910390a15050565b6000808284019050838110156103a657600080fd5b8091505092915050565b610714806103bf6000396000f3fe6080604052600436106100555760003560e01c806319165587146100c25780633a98ef39146101135780638b83209b1461013e5780639852595c146101b9578063ce7c2ac21461021e578063e33b7de314610283575b7f6ef95f06320e7a25a04a175ca677b7052bdd97131872c2192525a629f51be7703334604051808373ffffffffffffffffffffffffffffffffffffffff1673ffffffffffffffffffffffffffffffffffffffff1681526020018281526020019250505060405180910390a1005b3480156100ce57600080fd5b50610111600480360360208110156100e557600080fd5b81019080803573ffffffffffffffffffffffffffffffffffffffff1690602001909291905050506102ae565b005b34801561011f57600080fd5b5061012861055a565b6040518082815260200191505060405180910390f35b34801561014a57600080fd5b506101776004803603602081101561016157600080fd5b8101908080359060200190929190505050610563565b604051808273ffffffffffffffffffffffffffffffffffffffff1673ffffffffffffffffffffffffffffffffffffffff16815260200191505060405180910390f35b3480156101c557600080fd5b50610208600480360360208110156101dc57600080fd5b81019080803573ffffffffffffffffffffffffffffffffffffffff1690602001909291905050506105a4565b6040518082815260200191505060405180910390f35b34801561022a57600080fd5b5061026d6004803603602081101561024157600080fd5b81019080803573ffffffffffffffffffffffffffffffffffffffff1690602001909291905050506105ed565b6040518082815260200191505060405180910390f35b34801561028f57600080fd5b50610298610636565b6040518082815260200191505060405180910390f35b6000600260008373ffffffffffffffffffffffffffffffffffffffff1673ffffffffffffffffffffffffffffffffffffffff16815260200190815260200160002054116102fa57600080fd5b60006103286001543073ffffffffffffffffffffffffffffffffffffffff163161064090919063ffffffff16565b905060006103e3600360008573ffffffffffffffffffffffffffffffffffffffff1673ffffffffffffffffffffffffffffffffffffffff168152602001908152602001600020546103d56000546103c7600260008973ffffffffffffffffffffffffffffffffffffffff1673ffffffffffffffffffffffffffffffffffffffff168152602001908152602001600020548761065f90919063ffffffff16565b61069990919063ffffffff16565b6106bf90919063ffffffff16565b905060008114156103f357600080fd5b61044581600360008673ffffffffffffffffffffffffffffffffffffffff1673ffffffffffffffffffffffffffffffffffffffff1681526020019081526020016000205461064090919063ffffffff16565b600360008573ffffffffffffffffffffffffffffffffffffffff1673ffffffffffffffffffffffffffffffffffffffff1681526020019081526020016000208190555061049d8160015461064090919063ffffffff16565b6001819055508273ffffffffffffffffffffffffffffffffffffffff166108fc829081150290604051600060405180830381858888f193505050501580156104e9573d6000803e3d6000fd5b507fdf20fd1e76bc69d672e4814fafb2c449bba3a5369d8359adf9e05e6fde87b0568382604051808373ffffffffffffffffffffffffffffffffffffffff1673ffffffffffffffffffffffffffffffffffffffff1681526020018281526020019250505060405180910390a1505050565b60008054905090565b60006004828154811061057257fe5b9060005260206000200160009054906101000a900473ffffffffffffffffffffffffffffffffffffffff169050919050565b6000600360008373ffffffffffffffffffffffffffffffffffffffff1673ffffffffffffffffffffffffffffffffffffffff168152602001908152602001600020549050919050565b6000600260008373ffffffffffffffffffffffffffffffffffffffff1673ffffffffffffffffffffffffffffffffffffffff168152602001908152602001600020549050919050565b6000600154905090565b60008082840190508381101561065557600080fd5b8091505092915050565b6000808314156106725760009050610693565b600082840290508284828161068357fe5b041461068e57600080fd5b809150505b92915050565b60008082116106a757600080fd5b60008284816106b257fe5b0490508091505092915050565b6000828211156106ce57600080fd5b60008284039050809150509291505056fea265627a7a723158205d3ce3fecf65d9eda1a69ed1fde121d1db650cefa481c56695bd593261711d2764736f6c634300050b0032",
  "source": "pragma solidity ^0.5.0;\n\nimport \"../math/SafeMath.sol\";\n\n/**\n * @title PaymentSplitter\n * @dev This contract can be used when payments need to be received by a group\n * of people and split proportionately to some number of shares they own.\n */\ncontract PaymentSplitter {\n    using SafeMath for uint256;\n\n    event PayeeAdded(address account, uint256 shares);\n    event PaymentReleased(address to, uint256 amount);\n    event PaymentReceived(address from, uint256 amount);\n\n    uint256 private _totalShares;\n    uint256 private _totalReleased;\n\n    mapping(address => uint256) private _shares;\n    mapping(address => uint256) private _released;\n    address[] private _payees;\n\n    /**\n     * @dev Constructor\n     */\n    constructor (address[] memory payees, uint256[] memory shares) public payable {\n        require(payees.length == shares.length);\n        require(payees.length > 0);\n\n        for (uint256 i = 0; i < payees.length; i++) {\n            _addPayee(payees[i], shares[i]);\n        }\n    }\n\n    /**\n     * @dev payable fallback\n     */\n    function () external payable {\n        emit PaymentReceived(msg.sender, msg.value);\n    }\n\n    /**\n     * @return the total shares of the contract.\n     */\n    function totalShares() public view returns (uint256) {\n        return _totalShares;\n    }\n\n    /**\n     * @return the total amount already released.\n     */\n    function totalReleased() public view returns (uint256) {\n        return _totalReleased;\n    }\n\n    /**\n     * @return the shares of an account.\n     */\n    function shares(address account) public view returns (uint256) {\n        return _shares[account];\n    }\n\n    /**\n     * @return the amount already released to an account.\n     */\n    function released(address account) public view returns (uint256) {\n        return _released[account];\n    }\n\n    /**\n     * @return the address of a payee.\n     */\n    function payee(uint256 index) public view returns (address) {\n        return _payees[index];\n    }\n\n    /**\n     * @dev Release one of the payee's proportional payment.\n     * @param account Whose payments will be released.\n     */\n    function release(address payable account) public {\n        require(_shares[account] > 0);\n\n        uint256 totalReceived = address(this).balance.add(_totalReleased);\n        uint256 payment = totalReceived.mul(_shares[account]).div(_totalShares).sub(_released[account]);\n\n        require(payment != 0);\n\n        _released[account] = _released[account].add(payment);\n        _totalReleased = _totalReleased.add(payment);\n\n        account.transfer(payment);\n        emit PaymentReleased(account, payment);\n    }\n\n    /**\n     * @dev Add a new payee to the contract.\n     * @param account The address of the payee to add.\n     * @param shares_ The number of shares owned by the payee.\n     */\n    function _addPayee(address account, uint256 shares_) private {\n        require(account != address(0));\n        require(shares_ > 0);\n        require(_shares[account] == 0);\n\n        _payees.push(account);\n        _shares[account] = shares_;\n        _totalShares = _totalShares.add(shares_);\n        emit PayeeAdded(account, shares_);\n    }\n}\n",
  "sourcePath": "/home/user/Desktop/nft-auction-dapp/contracts/openzeppelin-solidity/contracts/payment/PaymentSplitter.sol",
  "compiler": {
    "name": "solc",
    "version": "0.5.11+commit.c082d0b4.Emscripten.clang"
  },
  "schemaVersion": "3.0.18",
  "updatedAt": "2020-01-10T13:46:25.138Z",
  "devdoc": {
    "details": "This contract can be used when payments need to be received by a group of people and split proportionately to some number of shares they own.",
    "methods": {
      "constructor": {
        "details": "Constructor"
      },
      "payee(uint256)": {
        "return": "the address of a payee."
      },
      "release(address)": {
        "details": "Release one of the payee's proportional payment.",
        "params": {
          "account": "Whose payments will be released."
        }
      },
      "released(address)": {
        "return": "the amount already released to an account."
      },
      "shares(address)": {
        "return": "the shares of an account."
      },
      "totalReleased()": {
        "return": "the total amount already released."
      },
      "totalShares()": {
        "return": "the total shares of the contract."
      }
    },
    "title": "PaymentSplitter"
  },
  "userdoc": {
    "methods": {}
  }
}