{
  "contractName": "TokenVesting",
  "abi": [
    {
      "constant": false,
      "inputs": [],
      "name": "renounceOwnership",
      "outputs": [],
      "payable": false,
      "stateMutability": "nonpayable",
      "type": "function"
    },
    {
      "constant": true,
      "inputs": [],
      "name": "owner",
      "outputs": [
        {
          "internalType": "address",
          "name": "",
          "type": "address"
        }
      ],
      "payable": false,
      "stateMutability": "view",
      "type": "function"
    },
    {
      "constant": true,
      "inputs": [],
      "name": "isOwner",
      "outputs": [
        {
          "internalType": "bool",
          "name": "",
          "type": "bool"
        }
      ],
      "payable": false,
      "stateMutability": "view",
      "type": "function"
    },
    {
      "constant": false,
      "inputs": [
        {
          "internalType": "address",
          "name": "newOwner",
          "type": "address"
        }
      ],
      "name": "transferOwnership",
      "outputs": [],
      "payable": false,
      "stateMutability": "nonpayable",
      "type": "function"
    },
    {
      "inputs": [
        {
          "internalType": "address",
          "name": "beneficiary",
          "type": "address"
        },
        {
          "internalType": "uint256",
          "name": "start",
          "type": "uint256"
        },
        {
          "internalType": "uint256",
          "name": "cliffDuration",
          "type": "uint256"
        },
        {
          "internalType": "uint256",
          "name": "duration",
          "type": "uint256"
        },
        {
          "internalType": "bool",
          "name": "revocable",
          "type": "bool"
        }
      ],
      "payable": false,
      "stateMutability": "nonpayable",
      "type": "constructor"
    },
    {
      "anonymous": false,
      "inputs": [
        {
          "indexed": false,
          "internalType": "address",
          "name": "token",
          "type": "address"
        },
        {
          "indexed": false,
          "internalType": "uint256",
          "name": "amount",
          "type": "uint256"
        }
      ],
      "name": "TokensReleased",
      "type": "event"
    },
    {
      "anonymous": false,
      "inputs": [
        {
          "indexed": false,
          "internalType": "address",
          "name": "token",
          "type": "address"
        }
      ],
      "name": "TokenVestingRevoked",
      "type": "event"
    },
    {
      "anonymous": false,
      "inputs": [
        {
          "indexed": true,
          "internalType": "address",
          "name": "previousOwner",
          "type": "address"
        },
        {
          "indexed": true,
          "internalType": "address",
          "name": "newOwner",
          "type": "address"
        }
      ],
      "name": "OwnershipTransferred",
      "type": "event"
    },
    {
      "constant": true,
      "inputs": [],
      "name": "beneficiary",
      "outputs": [
        {
          "internalType": "address",
          "name": "",
          "type": "address"
        }
      ],
      "payable": false,
      "stateMutability": "view",
      "type": "function"
    },
    {
      "constant": true,
      "inputs": [],
      "name": "cliff",
      "outputs": [
        {
          "internalType": "uint256",
          "name": "",
          "type": "uint256"
        }
      ],
      "payable": false,
      "stateMutability": "view",
      "type": "function"
    },
    {
      "constant": true,
      "inputs": [],
      "name": "start",
      "outputs": [
        {
          "internalType": "uint256",
          "name": "",
          "type": "uint256"
        }
      ],
      "payable": false,
      "stateMutability": "view",
      "type": "function"
    },
    {
      "constant": true,
      "inputs": [],
      "name": "duration",
      "outputs": [
        {
          "internalType": "uint256",
          "name": "",
          "type": "uint256"
        }
      ],
      "payable": false,
      "stateMutability": "view",
      "type": "function"
    },
    {
      "constant": true,
      "inputs": [],
      "name": "revocable",
      "outputs": [
        {
          "internalType": "bool",
          "name": "",
          "type": "bool"
        }
      ],
      "payable": false,
      "stateMutability": "view",
      "type": "function"
    },
    {
      "constant": true,
      "inputs": [
        {
          "internalType": "address",
          "name": "token",
          "type": "address"
        }
      ],
      "name": "released",
      "outputs": [
        {
          "internalType": "uint256",
          "name": "",
          "type": "uint256"
        }
      ],
      "payable": false,
      "stateMutability": "view",
      "type": "function"
    },
    {
      "constant": true,
      "inputs": [
        {
          "internalType": "address",
          "name": "token",
          "type": "address"
        }
      ],
      "name": "revoked",
      "outputs": [
        {
          "internalType": "bool",
          "name": "",
          "type": "bool"
        }
      ],
      "payable": false,
      "stateMutability": "view",
      "type": "function"
    },
    {
      "constant": false,
      "inputs": [
        {
          "internalType": "contract IERC20",
          "name": "token",
          "type": "address"
        }
      ],
      "name": "release",
      "outputs": [],
      "payable": false,
      "stateMutability": "nonpayable",
      "type": "function"
    },
    {
      "constant": false,
      "inputs": [
        {
          "internalType": "contract IERC20",
          "name": "token",
          "type": "address"
        }
      ],
      "name": "revoke",
      "outputs": [],
      "payable": false,
      "stateMutability": "nonpayable",
      "type": "function"
    }
  ],
  "bytecode": "0x608060405234801561001057600080fd5b506040516110ff3803806110ff833981810160405260a081101561003357600080fd5b810190808051906020019092919080519060200190929190805190602001909291908051906020019092919080519060200190929190505050336000806101000a81548173ffffffffffffffffffffffffffffffffffffffff021916908373ffffffffffffffffffffffffffffffffffffffff1602179055506000809054906101000a900473ffffffffffffffffffffffffffffffffffffffff1673ffffffffffffffffffffffffffffffffffffffff16600073ffffffffffffffffffffffffffffffffffffffff167f8be0079c531659141344cd1fd0a4f28419497f9722a3daafe3b4186f6b6457e060405160405180910390a3600073ffffffffffffffffffffffffffffffffffffffff168573ffffffffffffffffffffffffffffffffffffffff16141561016257600080fd5b8183111561016f57600080fd5b6000821161017c57600080fd5b42610194838661022e60201b610a1d1790919060201c565b1161019e57600080fd5b84600160006101000a81548173ffffffffffffffffffffffffffffffffffffffff021916908373ffffffffffffffffffffffffffffffffffffffff16021790555080600560006101000a81548160ff02191690831515021790555081600481905550610217838561022e60201b610a1d1790919060201c565b60028190555083600381905550505050505061024d565b60008082840190508381101561024357600080fd5b8091505092915050565b610ea38061025c6000396000f3fe608060405234801561001057600080fd5b50600436106100cf5760003560e01c8063872a78101161008c5780639852595c116100665780639852595c1461027a578063be9a6555146102d2578063f2fde38b146102f0578063fa01dc0614610334576100cf565b8063872a7810146101ec5780638da5cb5b1461020e5780638f32d59b14610258576100cf565b80630fb5a6b4146100d457806313d033c0146100f2578063191655871461011057806338af3eed14610154578063715018a61461019e57806374a8f103146101a8575b600080fd5b6100dc610390565b6040518082815260200191505060405180910390f35b6100fa61039a565b6040518082815260200191505060405180910390f35b6101526004803603602081101561012657600080fd5b81019080803573ffffffffffffffffffffffffffffffffffffffff1690602001909291905050506103a4565b005b61015c61050f565b604051808273ffffffffffffffffffffffffffffffffffffffff1673ffffffffffffffffffffffffffffffffffffffff16815260200191505060405180910390f35b6101a6610539565b005b6101ea600480360360208110156101be57600080fd5b81019080803573ffffffffffffffffffffffffffffffffffffffff169060200190929190505050610609565b005b6101f461085d565b604051808215151515815260200191505060405180910390f35b610216610874565b604051808273ffffffffffffffffffffffffffffffffffffffff1673ffffffffffffffffffffffffffffffffffffffff16815260200191505060405180910390f35b61026061089d565b604051808215151515815260200191505060405180910390f35b6102bc6004803603602081101561029057600080fd5b81019080803573ffffffffffffffffffffffffffffffffffffffff1690602001909291905050506108f4565b6040518082815260200191505060405180910390f35b6102da61093d565b6040518082815260200191505060405180910390f35b6103326004803603602081101561030657600080fd5b81019080803573ffffffffffffffffffffffffffffffffffffffff169060200190929190505050610947565b005b6103766004803603602081101561034a57600080fd5b81019080803573ffffffffffffffffffffffffffffffffffffffff169060200190929190505050610964565b604051808215151515815260200191505060405180910390f35b6000600454905090565b6000600254905090565b60006103af826109ba565b9050600081116103be57600080fd5b61041081600660008573ffffffffffffffffffffffffffffffffffffffff1673ffffffffffffffffffffffffffffffffffffffff16815260200190815260200160002054610a1d90919063ffffffff16565b600660008473ffffffffffffffffffffffffffffffffffffffff1673ffffffffffffffffffffffffffffffffffffffff168152602001908152602001600020819055506104a0600160009054906101000a900473ffffffffffffffffffffffffffffffffffffffff16828473ffffffffffffffffffffffffffffffffffffffff16610a3c9092919063ffffffff16565b7fc7798891864187665ac6dd119286e44ec13f014527aeeb2b8eb3fd413df931798282604051808373ffffffffffffffffffffffffffffffffffffffff1673ffffffffffffffffffffffffffffffffffffffff1681526020018281526020019250505060405180910390a15050565b6000600160009054906101000a900473ffffffffffffffffffffffffffffffffffffffff16905090565b61054161089d565b61054a57600080fd5b600073ffffffffffffffffffffffffffffffffffffffff166000809054906101000a900473ffffffffffffffffffffffffffffffffffffffff1673ffffffffffffffffffffffffffffffffffffffff167f8be0079c531659141344cd1fd0a4f28419497f9722a3daafe3b4186f6b6457e060405160405180910390a360008060006101000a81548173ffffffffffffffffffffffffffffffffffffffff021916908373ffffffffffffffffffffffffffffffffffffffff160217905550565b61061161089d565b61061a57600080fd5b600560009054906101000a900460ff1661063357600080fd5b600760008273ffffffffffffffffffffffffffffffffffffffff1673ffffffffffffffffffffffffffffffffffffffff16815260200190815260200160002060009054906101000a900460ff161561068a57600080fd5b60008173ffffffffffffffffffffffffffffffffffffffff166370a08231306040518263ffffffff1660e01b8152600401808273ffffffffffffffffffffffffffffffffffffffff1673ffffffffffffffffffffffffffffffffffffffff16815260200191505060206040518083038186803b15801561070957600080fd5b505afa15801561071d573d6000803e3d6000fd5b505050506040513d602081101561073357600080fd5b810190808051906020019092919050505090506000610751836109ba565b905060006107688284610b0c90919063ffffffff16565b90506001600760008673ffffffffffffffffffffffffffffffffffffffff1673ffffffffffffffffffffffffffffffffffffffff16815260200190815260200160002060006101000a81548160ff0219169083151502179055506107f46107cd610874565b828673ffffffffffffffffffffffffffffffffffffffff16610a3c9092919063ffffffff16565b7f39983c6d4d174a7aee564f449d4a5c3c7ac9649d72b7793c56901183996f8af684604051808273ffffffffffffffffffffffffffffffffffffffff1673ffffffffffffffffffffffffffffffffffffffff16815260200191505060405180910390a150505050565b6000600560009054906101000a900460ff16905090565b60008060009054906101000a900473ffffffffffffffffffffffffffffffffffffffff16905090565b60008060009054906101000a900473ffffffffffffffffffffffffffffffffffffffff1673ffffffffffffffffffffffffffffffffffffffff163373ffffffffffffffffffffffffffffffffffffffff1614905090565b6000600660008373ffffffffffffffffffffffffffffffffffffffff1673ffffffffffffffffffffffffffffffffffffffff168152602001908152602001600020549050919050565b6000600354905090565b61094f61089d565b61095857600080fd5b61096181610b2c565b50565b6000600760008373ffffffffffffffffffffffffffffffffffffffff1673ffffffffffffffffffffffffffffffffffffffff16815260200190815260200160002060009054906101000a900460ff169050919050565b6000610a16600660008473ffffffffffffffffffffffffffffffffffffffff1673ffffffffffffffffffffffffffffffffffffffff16815260200190815260200160002054610a0884610c24565b610b0c90919063ffffffff16565b9050919050565b600080828401905083811015610a3257600080fd5b8091505092915050565b8273ffffffffffffffffffffffffffffffffffffffff1663a9059cbb83836040518363ffffffff1660e01b8152600401808373ffffffffffffffffffffffffffffffffffffffff1673ffffffffffffffffffffffffffffffffffffffff16815260200182815260200192505050602060405180830381600087803b158015610ac357600080fd5b505af1158015610ad7573d6000803e3d6000fd5b505050506040513d6020811015610aed57600080fd5b8101908080519060200190929190505050610b0757600080fd5b505050565b600082821115610b1b57600080fd5b600082840390508091505092915050565b600073ffffffffffffffffffffffffffffffffffffffff168173ffffffffffffffffffffffffffffffffffffffff161415610b6657600080fd5b8073ffffffffffffffffffffffffffffffffffffffff166000809054906101000a900473ffffffffffffffffffffffffffffffffffffffff1673ffffffffffffffffffffffffffffffffffffffff167f8be0079c531659141344cd1fd0a4f28419497f9722a3daafe3b4186f6b6457e060405160405180910390a3806000806101000a81548173ffffffffffffffffffffffffffffffffffffffff021916908373ffffffffffffffffffffffffffffffffffffffff16021790555050565b6000808273ffffffffffffffffffffffffffffffffffffffff166370a08231306040518263ffffffff1660e01b8152600401808273ffffffffffffffffffffffffffffffffffffffff1673ffffffffffffffffffffffffffffffffffffffff16815260200191505060206040518083038186803b158015610ca457600080fd5b505afa158015610cb8573d6000803e3d6000fd5b505050506040513d6020811015610cce57600080fd5b810190808051906020019092919050505090506000610d35600660008673ffffffffffffffffffffffffffffffffffffffff1673ffffffffffffffffffffffffffffffffffffffff1681526020019081526020016000205483610a1d90919063ffffffff16565b9050600254421015610d4c57600092505050610e09565b610d63600454600354610a1d90919063ffffffff16565b42101580610dba5750600760008573ffffffffffffffffffffffffffffffffffffffff1673ffffffffffffffffffffffffffffffffffffffff16815260200190815260200160002060009054906101000a900460ff165b15610dc9578092505050610e09565b610e04600454610df6610de760035442610b0c90919063ffffffff16565b84610e0e90919063ffffffff16565b610e4890919063ffffffff16565b925050505b919050565b600080831415610e215760009050610e42565b6000828402905082848281610e3257fe5b0414610e3d57600080fd5b809150505b92915050565b6000808211610e5657600080fd5b6000828481610e6157fe5b049050809150509291505056fea265627a7a723158201a27a736f16a9c0596cf0e2b06798966e9f10bda3c974298e5a67018706c5aaf64736f6c634300050b0032",
  "source": "pragma solidity ^0.5.0;\n\nimport \"../token/ERC20/SafeERC20.sol\";\nimport \"../ownership/Ownable.sol\";\nimport \"../math/SafeMath.sol\";\n\n/**\n * @title TokenVesting\n * @dev A token holder contract that can release its token balance gradually like a\n * typical vesting scheme, with a cliff and vesting period. Optionally revocable by the\n * owner.\n */\ncontract TokenVesting is Ownable {\n    // The vesting schedule is time-based (i.e. using block timestamps as opposed to e.g. block numbers), and is\n    // therefore sensitive to timestamp manipulation (which is something miners can do, to a certain degree). Therefore,\n    // it is recommended to avoid using short time durations (less than a minute). Typical vesting schemes, with a cliff\n    // period of a year and a duration of four years, are safe to use.\n    // solhint-disable not-rely-on-time\n\n    using SafeMath for uint256;\n    using SafeERC20 for IERC20;\n\n    event TokensReleased(address token, uint256 amount);\n    event TokenVestingRevoked(address token);\n\n    // beneficiary of tokens after they are released\n    address private _beneficiary;\n\n    // Durations and timestamps are expressed in UNIX time, the same units as block.timestamp.\n    uint256 private _cliff;\n    uint256 private _start;\n    uint256 private _duration;\n\n    bool private _revocable;\n\n    mapping (address => uint256) private _released;\n    mapping (address => bool) private _revoked;\n\n    /**\n     * @dev Creates a vesting contract that vests its balance of any ERC20 token to the\n     * beneficiary, gradually in a linear fashion until start + duration. By then all\n     * of the balance will have vested.\n     * @param beneficiary address of the beneficiary to whom vested tokens are transferred\n     * @param cliffDuration duration in seconds of the cliff in which tokens will begin to vest\n     * @param start the time (as Unix time) at which point vesting starts\n     * @param duration duration in seconds of the period in which the tokens will vest\n     * @param revocable whether the vesting is revocable or not\n     */\n    constructor (address beneficiary, uint256 start, uint256 cliffDuration, uint256 duration, bool revocable) public {\n        require(beneficiary != address(0));\n        require(cliffDuration <= duration);\n        require(duration > 0);\n        require(start.add(duration) > block.timestamp);\n\n        _beneficiary = beneficiary;\n        _revocable = revocable;\n        _duration = duration;\n        _cliff = start.add(cliffDuration);\n        _start = start;\n    }\n\n    /**\n     * @return the beneficiary of the tokens.\n     */\n    function beneficiary() public view returns (address) {\n        return _beneficiary;\n    }\n\n    /**\n     * @return the cliff time of the token vesting.\n     */\n    function cliff() public view returns (uint256) {\n        return _cliff;\n    }\n\n    /**\n     * @return the start time of the token vesting.\n     */\n    function start() public view returns (uint256) {\n        return _start;\n    }\n\n    /**\n     * @return the duration of the token vesting.\n     */\n    function duration() public view returns (uint256) {\n        return _duration;\n    }\n\n    /**\n     * @return true if the vesting is revocable.\n     */\n    function revocable() public view returns (bool) {\n        return _revocable;\n    }\n\n    /**\n     * @return the amount of the token released.\n     */\n    function released(address token) public view returns (uint256) {\n        return _released[token];\n    }\n\n    /**\n     * @return true if the token is revoked.\n     */\n    function revoked(address token) public view returns (bool) {\n        return _revoked[token];\n    }\n\n    /**\n     * @notice Transfers vested tokens to beneficiary.\n     * @param token ERC20 token which is being vested\n     */\n    function release(IERC20 token) public {\n        uint256 unreleased = _releasableAmount(token);\n\n        require(unreleased > 0);\n\n        _released[address(token)] = _released[address(token)].add(unreleased);\n\n        token.safeTransfer(_beneficiary, unreleased);\n\n        emit TokensReleased(address(token), unreleased);\n    }\n\n    /**\n     * @notice Allows the owner to revoke the vesting. Tokens already vested\n     * remain in the contract, the rest are returned to the owner.\n     * @param token ERC20 token which is being vested\n     */\n    function revoke(IERC20 token) public onlyOwner {\n        require(_revocable);\n        require(!_revoked[address(token)]);\n\n        uint256 balance = token.balanceOf(address(this));\n\n        uint256 unreleased = _releasableAmount(token);\n        uint256 refund = balance.sub(unreleased);\n\n        _revoked[address(token)] = true;\n\n        token.safeTransfer(owner(), refund);\n\n        emit TokenVestingRevoked(address(token));\n    }\n\n    /**\n     * @dev Calculates the amount that has already vested but hasn't been released yet.\n     * @param token ERC20 token which is being vested\n     */\n    function _releasableAmount(IERC20 token) private view returns (uint256) {\n        return _vestedAmount(token).sub(_released[address(token)]);\n    }\n\n    /**\n     * @dev Calculates the amount that has already vested.\n     * @param token ERC20 token which is being vested\n     */\n    function _vestedAmount(IERC20 token) private view returns (uint256) {\n        uint256 currentBalance = token.balanceOf(address(this));\n        uint256 totalBalance = currentBalance.add(_released[address(token)]);\n\n        if (block.timestamp < _cliff) {\n            return 0;\n        } else if (block.timestamp >= _start.add(_duration) || _revoked[address(token)]) {\n            return totalBalance;\n        } else {\n            return totalBalance.mul(block.timestamp.sub(_start)).div(_duration);\n        }\n    }\n}\n",
  "sourcePath": "/home/user/Desktop/nft-auction-dapp/contracts/openzeppelin-solidity/contracts/drafts/TokenVesting.sol",
  "compiler": {
    "name": "solc",
    "version": "0.5.11+commit.c082d0b4.Emscripten.clang"
  },
  "schemaVersion": "3.0.18",
  "updatedAt": "2020-01-10T13:46:25.129Z",
  "devdoc": {
    "details": "A token holder contract that can release its token balance gradually like a typical vesting scheme, with a cliff and vesting period. Optionally revocable by the owner.",
    "methods": {
      "beneficiary()": {
        "return": "the beneficiary of the tokens."
      },
      "cliff()": {
        "return": "the cliff time of the token vesting."
      },
      "constructor": {
        "details": "Creates a vesting contract that vests its balance of any ERC20 token to the beneficiary, gradually in a linear fashion until start + duration. By then all of the balance will have vested.",
        "params": {
          "beneficiary": "address of the beneficiary to whom vested tokens are transferred",
          "cliffDuration": "duration in seconds of the cliff in which tokens will begin to vest",
          "duration": "duration in seconds of the period in which the tokens will vest",
          "revocable": "whether the vesting is revocable or not",
          "start": "the time (as Unix time) at which point vesting starts"
        }
      },
      "duration()": {
        "return": "the duration of the token vesting."
      },
      "isOwner()": {
        "return": "true if `msg.sender` is the owner of the contract."
      },
      "owner()": {
        "return": "the address of the owner."
      },
      "release(address)": {
        "params": {
          "token": "ERC20 token which is being vested"
        }
      },
      "released(address)": {
        "return": "the amount of the token released."
      },
      "renounceOwnership()": {
        "details": "Allows the current owner to relinquish control of the contract."
      },
      "revocable()": {
        "return": "true if the vesting is revocable."
      },
      "revoke(address)": {
        "params": {
          "token": "ERC20 token which is being vested"
        }
      },
      "revoked(address)": {
        "return": "true if the token is revoked."
      },
      "start()": {
        "return": "the start time of the token vesting."
      },
      "transferOwnership(address)": {
        "details": "Allows the current owner to transfer control of the contract to a newOwner.",
        "params": {
          "newOwner": "The address to transfer ownership to."
        }
      }
    },
    "title": "TokenVesting"
  },
  "userdoc": {
    "methods": {
      "release(address)": {
        "notice": "Transfers vested tokens to beneficiary."
      },
      "renounceOwnership()": {
        "notice": "Renouncing to ownership will leave the contract without an owner. It will not be possible to call the functions with the `onlyOwner` modifier anymore."
      },
      "revoke(address)": {
        "notice": "Allows the owner to revoke the vesting. Tokens already vested remain in the contract, the rest are returned to the owner."
      }
    }
  }
}